:100000000C94650B0C94900B0C94900B0C94900B2F
:100010000C94900B0C94900B0C94900B0C94900BF4
:100020000C94900B0C94900B0C94900B0C94900BE4
:100030000C94900B0C94900B0C94900B0C94900BD4
:100040000C94900B0C940D8C0C94900B0C94900BC6
:100050000C94900B0C94900B0C9497950C94C2A953
:100060000C94900B0C9498590C94900B0C94900B4E
:100070000C94900B0C94900B0C94900B0C94900B94
:100080000C94B58A0C94900B0C94900B0C94900BE0
:100090000C94900B0C94900B0C94900B0C94DAA68F
:1000A0000C94900B0C94900B0C94878A0C94900BEE
:1000B0000C94900B0C94900B0C94900B0C94598A0C
:1000C0000C94900B0C94900B0C94900B0C94900B44
:1000D0000C94900B0C94900B0C94900B0C94900B34
:1000E0000C94900BF095FD951B962896449651968E
:1000F0006D966F9678968496A096AD96C996D6968C
:10010000F296FF961997084AD73B3BCE016E84BC06
:10011000BFFDC12F3D6C74319ABD56833DDA3D0061
:10012000C77F11BED9E4BB4C3E916BAAAABE0000AA
:1001300000803F05A84CCDB2D44EB93836A9020C88
:1001400050B9918688083CA6AAAA2ABE0000008061
:100150003F6563686F3A0048617264636F64656409
:100160002044656661756C742053657474696E67AC
:1001700073204C6F616465640053746F7265642012
:1001800073657474696E67732072657472696576DD
:100190006564005A2050726F6265204C656E67740A
:1001A000683A2000536572766F20456E6473746FF1
:1001B000702073657474696E67733A002044002080
:1001C00049002020204D3330312050005049442038
:1001D00073657474696E67733A00205A0020590081
:1001E00020204D323036205800486F6D65206F66F4
:1001F0006673657420286D6D293A00204500205AE9
:100200000020580020420020540020204D3230357C
:10021000205300416476616E636564207661726983
:1002200061626C65733A20533D4D696E2066656569
:10023000647261746520286D6D2F73292C20543DE4
:100240004D696E2074726176656C206665656472B6
:1002500061746520286D6D2F73292C20423D6D69D6
:100260006E696D756D207365676D656E7420746958
:100270006D6520286D73292C20583D6D6178696D5E
:10028000756D205859206A65726B20286D6D2F732B
:10029000292C20205A3D6D6178696D756D205A209A
:1002A0006A65726B20286D6D2F73292C2020453DC7
:1002B0006D6178696D756D2045206A65726B2028C7
:1002C0006D6D2F73290020540020204D32303420D2
:1002D0005300416363656C65726174696F6E3A20A7
:1002E000533D616363656C65726174696F6E2C2048
:1002F000543D7265747261637420616363656C65FB
:10030000726174696F6E00204500205A0020590008
:1003100020204D3230312058004D6178696D756D67
:1003200020416363656C65726174696F6E20286D2E
:100330006D2F7332293A00204500205A00205900C1
:1003400020204D3230332058004D6178696D756D35
:100350002066656564726174657320286D6D2F7306
:10036000293A00204500205A0020590020204D390C
:100370003220580053746570732070657220756E5A
:1003800069743A0053657474696E67732053746FAF
:10039000726564006563686F3A004572726F723A05
:1003A000005072696E7465722073746F707065644A
:1003B0002064756520746F206572726F72732E20D1
:1003C00046697820746865206572726F7220616E6C
:1003D0006420757365204D39393920746F2072653A
:1003E00073746172742E202854656D706572617427
:1003F0007572652069732072657365742E2053656C
:10040000742069742061667465722072657374610A
:100410007274696E6729005072696E746572206823
:10042000616C7465642E206B696C6C282920636193
:100430006C6C656421005072696E7465722068612D
:100440006C7465642E206B696C6C28292063616C68
:100450006C656421006F6B00526573656E643A20B1
:10046000002200556E6B6E6F776E20636F6D6D614D
:100470006E643A202200432D3E003A0020205400B2
:10048000432D3E002020202041444320423A004991
:1004900073696E6B65643A00565F35563A00565F75
:1004A0003234563A0050726573737572653A007A49
:1004B0005F6D61783A20007A5F6D696E3A20005A6C
:1004C000204F6666736574007A5F6D61783A20002C
:1004D0007A5F6D696E3A2000795F6D61783A20002D
:1004E000795F6D696E3A2000785F6D61783A20001F
:1004F000785F6D696E3A2000205A3A0020593A0020
:1005000020436F756E7420583A200020453A002031
:100510005A3A0020593A00583A004649524D57413C
:1005200052455F4E414D453A4D61726C696E2056A1
:10053000313B20537072696E7465722F6772626C02
:10054000206D617368757020666F722067656E3606
:10055000204649524D574152455F55524C3A6874B6
:100560007470733A2F2F6769746875622E636F6DAC
:100570002F4572696B5A616C6D2F4D61726C696E9B
:100580002F2050524F544F434F4C5F5645525349C2
:100590004F4E3A312E30204D414348494E455F542D
:1005A0005950453A4D656E64656C20455854525516
:1005B0004445525F434F554E543A312055554944B6
:1005C0003A30303030303030302D303030302D3027
:1005D0003030302D303030302D3030303030303021
:1005E00030303030300A0020423A0020453A005482
:1005F0003A0020573A0020453A00543A0020424041
:100600003A0020403A00202F003A00205400202FCA
:100610000020423A00202F006F6B20543A002569D9
:10062000206D696E2C20256920736563000A002007
:100630005A3A200020593A200020583A20004265BA
:10064000640020002046656564726174653A20008C
:1006500020643A200020623A200045716E20636FCA
:10066000656666696369656E74733A20613A200055
:10067000486F6D6520582F59206265666F7265203E
:100680005A005A2070726F6265206F75742E206256
:10069000656400486F6D6520582F59206265666F4C
:1006A0007265205A00FFFFFF0000564300006A43B6
:1006B000008071430000A0400000A0400000004006
:1006C000000000000000000000000000000000002A
:1006D00000000000000000000000564300006A43D4
:1006E000008071430A00207A3A200020793A2000E5
:1006F00020783A2000426564005072696E74657219
:100700002073746F707065642064756520746F2049
:100710006572726F72732E20466978207468652046
:100720006572726F7220616E6420757365204D3939
:10073000393920746F20726573746172742E2028A9
:1007400054656D706572617475726520697320728D
:10075000657365742E205365742069742061667416
:1007600065722072657374617274696E6729006FB7
:100770006B004E6F204C696E65204E756D62657220
:10078000207769746820636865636B73756D2C20CE
:100790004C617374204C696E653A20004E6F2043A3
:1007A0006865636B73756D2077697468206C696E1A
:1007B00065206E756D6265722C204C617374204CDF
:1007C000696E653A2000636865636B73756D206DB3
:1007D00069736D617463682C204C617374204C697B
:1007E0006E653A20004C696E65204E756D626572CB
:1007F000206973206E6F74204C617374204C696E95
:1008000065204E756D6265722B312C204C617374BE
:10081000204C696E653A20004D3131300020205067
:100820006C616E6E6572427566666572427974655A
:10083000733A20002046726565204D656D6F7279B0
:100840003A2000416E647265612043656C616E6997
:100850002C20464142746F74756D20506572736F21
:100860006E616C2046616272696361746F72002010
:100870007C20417574686F723A20004465632031B2
:100880003020323031342030303A33373A30310092
:10089000204C61737420557064617465643A200063
:1008A0005620312E302E303037004D61726C696E1B
:1008B00020666F7220464142746F74756D205065DA
:1008C00072736F6E616C2046616272696361746FEE
:1008D000720020536F66747761726520526573658C
:1008E0007400205761746368646F67205265736594
:1008F00074002042726F776E206F7574205265739A
:100900006574002045787465726E616C2052657361
:10091000657400506F7765725570007374617274FE
:10092000002200656E717565696E672022002200E5
:10093000656E717565696E672022006563686F3A40
:100940000020746F6F206C6F6E672065787472750D
:1009500073696F6E2070726576656E7465640020D1
:10096000636F6C6420657874727573696F6E207044
:10097000726576656E7465640045303A20005A3AB7
:100980002000593A2000583A20004D53312C4D5345
:10099000322050696E730A0024F404D9201BC40C61
:1009A0005C0E9804C4095F0265077101F405F90043
:1009B000FB04B30048048700C103690058035500D5
:1009C00003034500BE023A008402310053022A00AC
:1009D0002902250004022000E4011C00C8011900BE
:1009E000AF01170098011400840113007101100079
:1009F0006101100051010E0043010D0036010B0092
:100A00002B010B0020010B00150109000C0109004E
:100A100003010800FB000800F3000800EB000700DA
:100A2000E4000600DE000600D8000600D200060042
:100A3000CC000500C7000500C2000500BD00040091
:100A4000B9000400B5000400B1000400AD000400CA
:100A5000A9000400A5000300A20003009F000400F9
:100A60009B00030098000300950002009300030020
:100A7000900003008D0002008B000300880002003C
:100A80008600020084000300810002007F00020053
:100A90007D0002007B000200790002007700010067
:100AA0007600020074000200720001007100020072
:100AB0006F0002006D0001006C0002006A0001007E
:100AC0006900020067000100660001006500010086
:100AD000640002006200010061000100600001008A
:100AE0005F0002005D0001005C0001005B0001008E
:100AF0005A00010059000100580001005700010090
:100B00005600010055000100540001005300000090
:100B1000530001005200010051000100500001008B
:100B20004F0001004E0000004E0001004D0001008A
:100B30004C0001004B0000004B0001004A00010086
:100B40004900010048000000480001004700010082
:100B5000460000004600010045000000450001007D
:100B60004400010043000000430001004200000077
:100B7000420001004100000041000100400001006E
:100B80003F0000003F0001003E0000003E00010069
:100B90003D0000003D0001003C0000003C00000062
:100BA0003C0001003B0000003B0001003A00000057
:100BB0003A0001003900000039000100380000004F
:100BC0003800000038000100370000003700010045
:100BD000360000003600000036000100350000003D
:100BE0003500000035000100340000003400000032
:100BF0003400010033000000330000003300010026
:100C0000320000003200000032000100310000001C
:100C10003100000031000100300000003000000011
:100C2000300001002F0000002F0000002F00000006
:100C30002F0001002E0000002E0000002E000100F9
:100C40002D0000002D0000002D0000002D000100EF
:100C50002C0000002C0000002C0000002C000100E3
:100C60002B0000002B0000002B0000002B000100D7
:100C70002A0000002A0000002A0000002A000100CB
:100C800029000000290000002900000029000000C0
:100C900029000100280000002800000028000000B2
:100CA00028000000280001002700000027000000A5
:100CB0002700000027000000270001002600000098
:100CC000260000002600000026000000260001008B
:100CD0002500000025000000250000002500000080
:100CE0002500000025000100240000002400000071
:100CF0002400000024000000240001002300000064
:100D00002300000023000000230000002300000057
:100D10002300000023000100220000002200000048
:100D2000220000002200000022000000220001003A
:100D3000210000002100000021000000210000002F
:100D4000210000002100000021000100200000001F
:100D50002000000020000000200000002000000013
:100D60002000000020000000200001001F00000003
:100D70001F0000001F0000001F0000001F000000F7
:100D80001F0000001F0001001E0000001E000000E8
:100D90001E0000001E00000024F4D43050C38E203A
:100DA000C2A24017828B7011127A910D816CD90A00
:100DB000A861E108C7586607615143061E4B5D05EF
:100DC000C145A7041A411104093D98037139310343
:100DD0004036DB0265339102D4305402802E1D026E
:100DE000632CEE01752AC501B028A00110278101EE
:100DF0008F2564012B244B01E0223401AC211F011B
:100E00008D200D01801FFC00841EED00971DDF006A
:100E1000B81CD200E61BC600201BBC00641AB2003E
:100E2000B219A8000A19A0006A189900D1179100F8
:100E300040178B00B516840031167E00B31579007B
:100E40003A157300C7146F0058146A00EE13660059
:100E50008813630025135E00C7125B006C125700F5
:100E600015125400C111510070114F0021114B0097
:100E7000D61049008D104700461044000210420071
:100E8000C00F4000800F3E00420F3C00060F3B00A9
:100E9000CB0E3800930E37005C0E3500270E340061
:100EA000F30D3200C10D3100900D3000600D2E00A9
:100EB000320D2D00050D2C00D90C2B00AE0C290095
:100EC000850C29005C0C2700350C27000E0C260031
:100ED000E80B2400C40B2400A00B23007D0B23008F
:100EE0005A0B2100390B2100180B2000F80A1F00B3
:100EF000D90A1E00BB0A1E009D0A1D00800A1D00A3
:100F0000630A1C00470A1B002C0A1B00110A1A0066
:100F1000F7091A00DD091900C4091900AB09190005
:100F2000920917007B091800630917004C09160085
:100F300036091600200916000A091500F5081500E3
:100F4000E0081400CC081400B8081400A408140029
:100F5000900813007D0812006B0813005808120057
:100F6000460812003408110023081100120811006D
:100F700001081100F0071000E0071000D007100072
:100F8000C0071000B0070F00A107100091070E0066
:100F900083070F0074070F0065070E0057070E0048
:100FA00049070E003B070D002E070E0020070D001D
:100FB00013070D0006070D00F9060C00ED060D00E5
:100FC000E0060C00D4060C00C8060C00BC060C00A1
:100FD000B0060C00A4060B0099060C008D060B0051
:100FE00082060B0077060B006C060B0061060A00F8
:100FF00057060B004C060A0042060A0038060A0093
:101000002E060A0024060A001A060A001006090025
:1010100007060A00FD050900F4050900EB050900B3
:10102000E2050900D9050900D0050900C705090036
:10103000BE050900B5050800AD050800A5050900B5
:101040009C050800940508008C050800840508002C
:101050007C050800740508006C050700650508009C
:101060005D050700560508004E0507004705070007
:101070004005080038050700310507002A0507006C
:10108000230507001C050600160507000F050700CD
:101090000805060002050700FB040600F50407002A
:1010A000EE040600E8040600E2040700DB04060084
:1010B000D5040600CF040600C9040600C3040600D8
:1010C000BD040600B7040600B1040500AC04060028
:1010D000A6040600A00405009B0406009504050074
:1010E000900406008A0405008504050080040600BB
:1010F0007A04050075040500700405006B04050002
:1011000066040500610405005C0405005704050041
:10111000520405004D040500480405004304050081
:101120003E0404003A0405003504050030040400C0
:101130002C04050027040400230405001E040400F9
:101140001A04040016040500110404000D04040030
:10115000090405000404040000040400FC03040066
:10116000F8030400F4030400F0030400EC0304009B
:10117000E8030400E4030400E0030400DC030400CB
:10118000D8030400D4030400D0030400CC030400FB
:10119000C8030300C50303006563686F3A00205A63
:1011A0003A0020593A0020583A00656E6473746F13
:1011B0007073206869743A20004572726F723A0049
:1011C00054656D70657261747572652068656174CF
:1011D0006564206265642073776974636865642060
:1011E0006F66662E204D415854454D5020747269EB
:1011F000676765726564202121003A204578747222
:1012000075646572207377697463686564206F66BE
:10121000662E204D494E54454D50207472696767C3
:10122000657265642021003A2045787472756465A2
:1012300072207377697463686564206F66662E2018
:101240004D415854454D5020747269676765726509
:1012500064202100202D20496E76616C6964206530
:1012600078747275646572206E756D626572202186
:101270000070012C0190012701B0012201C0011D65
:1012800001F00118011002130130020E0160020981
:101290000190020401C002FF000003FA004003F5C0
:1012A000008003F000D003EB002004E6007004E1AE
:1012B00000E004DC004005D700C005D2004006CDA8
:1012C00000D006C8008007C3003008BE00F008B98F
:1012D00000C009B400B00AAF00B00BAA00D00CA542
:1012E00000000EA000500F9B00C0109600501291FD
:1012F0000000148C00C0158700B0178200B0197D63
:1013000000D01B7800001E730040206E0090226900
:1013100000F024640040275F0090295A00E02B551C
:1013200000102E500020304B0010324600E03341B8
:101330000090353C001037370070383200A0392D4E
:1013400000B03A2800A03B2300603C1E00103D196D
:1013500000903D1400103E0F00703E0A00C03E0594
:1013600000003F0000504944204175746F74756E51
:10137000652066696E697368656421205075742004
:10138000746865206C617374204B702C204B69204D
:10139000616E64204B6420636F6E7374616E74734E
:1013A0002066726F6D2061626F766520696E746F62
:1013B00020436F6E66696775726174696F6E2E681F
:1013C00000504944204175746F74756E65206661E4
:1013D000696C6564212074696D656F7574002040C7
:1013E0003A006F6B20543A006F6B20423A0050492C
:1013F00044204175746F74756E65206661696C6513
:1014000064212054656D7065726174757265207415
:101410006F6F206869676800204B643A2000204B9A
:10142000693A2000204B703A200020436C617373AE
:1014300069632050494420002054753A2000204B15
:10144000753A2000206D61783A2000206D696E3A6F
:10145000200020643A200020626961733A2000D0A5
:10146000002C01E00027010001220110011D0120D4
:101470000118013001130150010E016001090180C2
:10148000010401A001FF00C001FA00F001F5001005
:1014900002F0004002EB008002E600B002E100F042
:1014A00002DC004003D7009003D200E003CD0040EF
:1014B00004C800B004C3003005BE00B005B9005038
:1014C00006B4000007AF00B007AA009008A500808E
:1014D00009A000800A9B00B00B9600F00C91006000
:1014E0000E8C00E00F8700A011820080137D008029
:1014F000157800B0177300001A6E00701C690000A8
:101500001F6400B0215F0060245A0010275500C0FE
:10151000295000602C4B00E02E4600303141006025
:10152000333C006035370020373200B0382D0010D2
:101530003A2800303B2300303C1E00003D1900A03B
:101540003D1400303E0F00A03E0A00F03E05004072
:101550003F00000A0020000A00207A3A200020798B
:101560003A200020783A20000000210024002700C3
:101570002A002D00300033000101000004010701A2
:101580000A0100002200250028002B002E00310057
:10159000340002010000050108010B0100002000D9
:1015A0002300260029002C002F003200000100003B
:1015B00003010601090105050505070508080808D6
:1015C000020202020A0A08080404040401010101DB
:1015D00001010101030303030303030304070707D6
:1015E0000C0C0C0C0C0C0C0C02020202060606067B
:1015F000060606060B0B0B0B0B0B0B0B0102102048
:101600002008081020401020408002010201080438
:1016100002010102040810204080804020100804CC
:101620000201800402018040201008040201080425
:101630000201010204081020408001020408102069
:1016400040800000090A02080B0C0D070603040184
:10165000000000000000000000000000000000008A
:101660000000000000000000000000000000111059
:101670000F0000000000000000000000000000005B
:101680000000000000000000494E46494E495459F0
:101690004E414ECDCCCC3D0AD7233C17B7D138773D
:1016A000CC2B329595E6241FB14F0A000020410053
:1016B00000C84200401C4620BCBE4CCA1B0E5AAE9D
:1016C000C59D7400A51D2C5A76A511241FBECFEF11
:1016D000D1E2DEBFCDBF15E0A0E0B2E0E6E9F8E67A
:1016E00001E00BBF02C007900D92A038B107D9F7F7
:1016F0001BBE1FE0A0E8B5E001C01D92AD3CB107E4
:10170000E1F716E1CAECD6E104C02297FE010E947F
:1017100003B4C43CD107C9F70E94CAAC0C9449B4C5
:101720000C940000A0E0B0E0E8E9FBE00C9418B4F1
:10173000EC015B016115710519F0FB019183808358
:10174000F9908F2D90E00E9407B4892BC9F7FDE234
:10175000FF1621F4F990EE24E39405C02BE2F21673
:1017600009F4F990EE248E0101501040C80168E898
:1017700076E143E050E00E94210E892B01F58E01B5
:101780000E5F1F4FC8016BE876E145E050E00E9414
:10179000210E892B19F48E01095F1F4FA114B1048A
:1017A00019F0F50111830083E0FC04C070E090E0C3
:1017B00080E814C070E090E080E86FEF08C1C801D5
:1017C00060E976E143E050E00E94210E892B69F444
:1017D000A114B10429F470E090E080EC6FE7F7C049
:1017E0002296F501D183C083F6CF8824992440E066
:1017F00050E060E070E0EF2DE053EA30A0F5F2E059
:10180000EF2A8E2D90E09C0128703070E2FE06C019
:10181000232B79F50894811C911C2BC0232B19F0E4
:10182000089481089108DB01CA0112E0880F991F12
:10183000AA1FBB1F1A95D1F7480F591F6A1F7B1F9C
:10184000440F551F661F771F4E0F511D611D711DDF
:10185000483929E9520729E9620729E1720748F066
:1018600084E0E82A06C0EE3F31F4E3FC39C098E09A
:10187000E92AF990C0CFE53311F0E53189F52991D6
:101880002D3219F4E0E1EE2A05C02B3219F081E087
:1018900090E003C0299182E090E0E22FE053EA302B
:1018A00018F0C81BD90B1CC020E030E0FCE0203849
:1018B0003F075CF4C901880F991F880F991F280FF3
:1018C000391F220F331F2E0F311DE991E053EA30EB
:1018D00068F3E4FE03C0309521953F4F820E931EBE
:1018E000CE2CDD24E1FE07C0A114B10421F0219724
:1018F000F501D183C083CB01BA010E9460B07B01A6
:101900008C01F3E0CF22DD2423E0C216D10421F4C0
:1019100017FB109517F9109557016801C801B70119
:1019200020E030E040E050E00E94C0AF882309F49E
:101930004AC097FE0DC027EAE22E26E1F22E9094CF
:10194000819491089394C0E2D0E000E010E012C0CE
:101950009FEBE92E96E1F92EF6CFF701259135910F
:1019600045915491C601B5010E94A0B25B016C0182
:101970008C1A9D0A8C169D0684F7D595C7950F5F26
:101980001F4F0630110529F08CEF9FEFE80EF91E6E
:10199000F1CFC501D6017C018D018C2D880F8D2DD5
:1019A000881F8F3F51F0C601B50120E030E040E0D4
:1019B00050E00E94C0AF882331F482E290E090931F
:1019C000CC0F8093CB0F7E2D9F2D802F612F272F43
:1019D000392F482F562FB901CA01CDB7DEB7ECE039
:1019E0000C9434B42F923F925F926F927F928F92B9
:1019F0009F92AF92BF92CF92DF92EF92FF920F939E
:101A00001F93CF93DF938C011B01EA0161157105D0
:101A100019F0FB0191838083209749F0CE01029752
:101A2000839728F020E030E040E050E0F6C0F80175
:101A3000A1908F018A2D90E00E9407B4892BB9F7FD
:101A4000FDE2AF1631F4F801A1908F0155245394B3
:101A500007C0FBE2AF1619F4F801A1908F015524DD
:101A6000209719F0C031D105C1F4F0E3AF1679F435
:101A7000F8018081883711F0883549F4F801A18098
:101A80000E5F1F4FF2E05F2AC0E1D0E006C0209752
:101A900021F480E3A816E9F427C0C830D10531F15C
:101AA000C930D10524F4C230D10531F50CC0CA309B
:101AB000D10589F0C031D105F9F4C12CD12CE12C2C
:101AC000B8E0FB2E28C0C12CD12CE12CA0E4FA2ECA
:101AD00022C0CAE0D0E0FCECCF2EFCECDF2EFCEC08
:101AE000EF2EFCE0FF2E17C0C8E0D0E0C12CD12CB7
:101AF000E12CE0E1FE2E0FC09E01442737FD40950A
:101B0000542F60E070E080E090E80E94B0B3C9011B
:101B1000DA016C017D0120E030E040E050E060E05F
:101B20003E01882477FC8094982C70EDB72EBA0C77
:101B3000E9E0EB1570F48A2D81548A3118F499ECA0
:101B4000B92E06C08A2D81568A3150F589EAB82E01
:101B5000BA0C8B2D90E08C179D0714F56F3FE1F0C8
:101B6000C216D306E406F506B0F0CA01B901A40115
:101B700093010E9472B39B01AC012B0D311D411DDD
:101B8000511D2130F0E03F07F0E04F07F0E85F071C
:101B900010F461E001C06FEFF801A1908F01C5CF93
:101BA0002114310481F0662331F001501040F1011D
:101BB0001183008308C051FE1AC002501040F10189
:101BC0001183008314C067FF12C050FC05C02FEFC3
:101BD0003FEF4FEF5FE704C020E030E040E050E827
:101BE00082E290E09093CC0F8093CB0F16C050FE12
:101BF00008C050954095309521953F4F4F4F5F4F0E
:101C00000CC057FF0AC082E290E09093CC0F809303
:101C1000CB0F2FEF3FEF4FEF5FE7B901CA01DF9125
:101C2000CF911F910F91FF90EF90DF90CF90BF90D9
:101C3000AF909F908F907F906F905F903F902F908C
:101C40000895FB01DC014150504088F08D918134B2
:101C50001CF08B350CF4805E659161341CF06B35A3
:101C60000CF4605E861B611171F3990B0895881B5B
:101C7000FCCFFB0155915523A9F0BF01DC014D912B
:101C800045174111E1F759F4CD010590002049F0C5
:101C90004D9140154111C9F3FB014111EFCF81E096
:101CA00090E001970895FB01DC0102C001900D92C4
:101CB00041505040D8F70895FC018191861721F0DA
:101CC0008823D9F7992708953197CF010895FB010B
:101CD000DC0101900D920020E1F70895FB01DC0189
:101CE0004150504030F08D910190801919F400203E
:101CF000B9F7881B990B0895FB019F01423074F0DE
:101D0000453264F4642F77270E94EDB3805D8A33F7
:101D10000CF0895D8193CB010097A1F71082C90176
:101D20000C94A910AEE0B0E0E8E9FEE00C9420B419
:101D30000D891E898EE08C831A8309838FEF9FE7BC
:101D40009E838D839E01275E3F4FCE0101966F8952
:101D5000788DA9010E94B60E2F813885020F131FBE
:101D6000F80110822E96E4E00C943CB4ABE0B0E0B5
:101D7000ECEBFEE00C9412B43C012B015A01FC0187
:101D800017821682838181FD03C06FEF7FEFC6C18A
:101D90009AE0892E1E010894211C311CF301238135
:101DA000F20123FD859123FF81912F01882309F4FE
:101DB000B2C1853239F423FD859123FF81912F0132
:101DC000853229F490E0B3010E94B910E7CF982F33
:101DD000FF24EE249924FFE1FF15D0F09B3269F037
:101DE0009C3228F4903259F0933291F40EC09D3217
:101DF00049F0903369F441E024C052E0F52A84E0D0
:101E0000F82A28C098E0F92A25C0E0E1FE2A22C07D
:101E1000F7FC29C0892F80538A3070F4F6FE05C084
:101E2000989C902C1124980E15C0E89CE02C11244D
:101E3000E80EF0E2FF2A0EC09E3229F4F6FC6BC1D8
:101E400040E4F42A07C09C3619F450E8F52A02C091
:101E5000983649F4F20123FD959123FF91912F01CA
:101E6000992309F0B8CF892F8554833018F0805218
:101E7000833038F444E050E0A40EB51E5FE359838C
:101E80000FC0933631F0933779F0933509F056C08F
:101E900020C0F5018081898342E050E0A40EB51E88
:101EA000610101E010E012C0F501C080D180F6FCB4
:101EB00003C06FEF7FEF02C0692D70E042E050E099
:101EC000A40EB51EC6010E949E108C015FE7F5228C
:101ED00014C0F501C080D180F6FC03C06FEF7FEF26
:101EE00002C0692D70E042E050E0A40EB51EC601AC
:101EF0000E9493108C0150E8F52AF3FE07C01AC027
:101F000080E290E0B3010E94B910EA948E2D90E037
:101F100008171907A8F30EC0F601F7FC8591F7FE24
:101F200081916F0190E0B3010E94B910E110EA9431
:101F3000015010400115110579F7EAC0943611F0EF
:101F4000993669F5F7FE08C0F5012081318142819B
:101F5000538184E090E00AC0F501808191819C0169
:101F6000442737FD4095542F82E090E0A80EB91E1B
:101F70009FE6F92257FF09C050954095309521956D
:101F80003F4F4F4F5F4FE0E8FE2ACA01B901A10160
:101F90002AE030E00E94E510D82ED21840C09537D4
:101FA00029F41F2D1F7E2AE030E01DC01F2D197F50
:101FB0009F3661F0903720F4983509F0ACC00FC01F
:101FC000903739F0983709F0A6C004C028E030E017
:101FD0000AC0106114FD146020E130E004C014FD5B
:101FE000166020E132E017FF08C0F50160817181C1
:101FF0008281938144E050E008C0F50180819181A5
:10200000BC0180E090E042E050E0A40EB51EA101CA
:102010000E94E510D82ED2188FE7F82EF122F6FE96
:102020000BC05EEFF522D91438F4F4FE07C0F2FCC1
:1020300005C08FEEF82202C01D2D01C0192DF4FE3F
:102040000DC0FE01ED0DF11D8081803319F499EE74
:10205000F92208C01F5FF2FE05C003C08F2D8678ED
:1020600009F01F5F0F2DF3FC14C0F0FE0FC01E150A
:1020700010F09D2C0BC09D2C9E0C911A1E2D06C09D
:1020800080E290E0B3010E94B9101F5F1E15C0F3FB
:1020900004C01E1510F4E11A01C0EE2404FF0FC0A5
:1020A00080E390E0B3010E94B91002FF1DC001FD62
:1020B00003C088E790E00EC088E590E00BC0802F59
:1020C000867891F001FF02C08BE201C080E2F7FC4C
:1020D0008DE290E0B3010E94B91006C080E390E069
:1020E000B3010E94B9109A94D914C0F3DA94F101A3
:1020F000ED0DF11D808190E0B3010E94B910DD204B
:10210000A9F706C080E290E0B3010E94B910EA94FA
:10211000EE20C1F743CEF30166817781CB012B9688
:10212000E2E10C942EB4FC01059061507040011066
:10213000D8F7809590958E0F9F1F0895FC016150F0
:10214000704001900110D8F7809590958E0F9F1FD9
:102150000895DC01FC01672F71917723E1F7329735
:1021600004C07C916D9370836291AE17BF07C8F372
:1021700008950F931F93CF93DF938C01EB018B8115
:1021800081FF1BC082FF0DC02E813F818C819D810C
:102190002817390764F4E881F9810193F983E8830A
:1021A00006C0E885F985802F0995892B31F48E8149
:1021B0009F8101969F838E8302C00FEF1FEFC8019E
:1021C000DF91CF911F910F910895FA01AA2728302E
:1021D00051F1203181F1E8946F936E7F6E5F7F4FF4
:1021E0008F4F9F4FAF4FB1E03ED0B4E03CD0670F70
:1021F000781F891F9A1FA11D680F791F8A1F911DC3
:10220000A11D6A0F711D811D911DA11D20D009F412
:1022100068943F912AE0269F11243019305D319354
:10222000DEF6CF010895462F4770405D4193B3E03D
:102230000FD0C9F7F6CF462F4F70405D4A3318F0E4
:10224000495D31FD4052419302D0A9F7EACFB4E095
:10225000A6959795879577956795BA95C9F700974D
:102260006105710508959B01AC010A2E06945795EE
:10227000479537952795BA95C9F7620F731F841F45
:10228000951FA01D0895DF93CF93CDB7DEB7669756
:102290000FB6F894DEBF0FBECDBF809100029091C3
:1022A0000102A0910202B09103028F87988BA98B43
:1022B000BA8BFE013F9644E650E08081F999FECF4B
:1022C0001FBA52BD41BD80BD0FB6F894FA9AF99A73
:1022D0000FBE4F5F5F4F4836510511F03196EDCF7D
:1022E000E1E8F8E08081F999FECF1FBA52BD41BD07
:1022F00080BD0FB6F894FA9AF99A0FBE4F5F5F4F00
:102300004837510511F03196EDCFE1E7F8E08081D3
:10231000F999FECF1FBA52BD41BD80BD0FB6F894EA
:10232000FA9AF99A0FBE4F5F5F4F4838510511F086
:102330003196EDCFE1E9F8E08081F999FECF1FBA3F
:1023400052BD41BD80BD0FB6F894FA9AF99A0FBEFE
:102350004F5F5F4F4839510511F03196EDCFE5EAF7
:10236000F8E08081F999FECF1FBA52BD41BD80BD12
:102370000FB6F894FA9AF99A0FBE4F5F5F4F4C3937
:10238000510511F03196EDCFE9EAF8E08081F99935
:10239000FECF1FBA52BD41BD80BD0FB6F894FA9A68
:1023A000F99A0FBE4F5F5F4F403A510511F03196D9
:1023B000EDCFE1EAF8E08081F999FECF1FBA52BD76
:1023C00041BD80BD0FB6F894FA9AF99A0FBE4F5FDF
:1023D0005F4F443A510511F03196EDCFE9EBF8E04B
:1023E0008081F999FECF1FBA52BD41BD80BD0FB6A5
:1023F000F894FA9AF99A0FBE4F5F5F4F483A510529
:1024000011F03196EDCFEDE6F8E08081F999FECF3D
:102410001FBA52BD41BD80BD0FB6F894FA9AF99A21
:102420000FBE4F5F5F4F4C3A510511F03196EDCF23
:10243000EDEAF8E08081F999FECF1FBA52BD41BDA7
:1024400080BD0FB6F894FA9AF99A0FBE4F5F5F4FAE
:10245000403B510511F03196EDCFE1EBF8E0808182
:10246000F999FECF1FBA52BD41BD80BD0FB6F89499
:10247000FA9AF99A0FBE4F5F5F4F443B510511F036
:102480003196EDCFE5EBF8E08081F999FECF1FBAE8
:1024900052BD41BD80BD0FB6F894FA9AF99A0FBEAD
:1024A0004F5F5F4F483B510511F03196EDCFE6E9A4
:1024B000F5E08081F999FECF1FBA52BD41BD80BDC4
:1024C0000FB6F894FA9AF99A0FBE4F5F5F4F443CEB
:1024D000510511F03196EDCF84EB90E09A8389831A
:1024E00086E490E09C838B832FEF30E03E832D8346
:1024F00080EF90E098878F8384E690E09A878987C1
:102500003C872B87FE0131968081F999FECF1FBA57
:1025100052BD41BD80BD0FB6F894FA9AF99A0FBE2C
:102520004F5F5F4F463C510571F7FE013396808146
:10253000F999FECF1FBA52BD41BD80BD0FB6F894C8
:10254000FA9AF99A0FBE4F5F5F4F483C510511F060
:102550003196EDCFFE0135968081F999FECF1FBAF5
:1025600052BD41BD80BD0FB6F894FA9AF99A0FBEDC
:102570004F5F5F4F4A3C510511F03196EDCFFE01A0
:1025800037968081F999FECF1FBA52BD41BD80BDFB
:102590000FB6F894FA9AF99A0FBE4F5F5F4F4C3C12
:1025A000510511F03196EDCFFE0139968081F999F0
:1025B000FECF1FBA52BD41BD80BD0FB6F894FA9A46
:1025C000F99A0FBE4F5F5F4F4E3C510511F03196A7
:1025D000EDCFFE013B968081F999FECF1FBA52BD27
:1025E00041BD80BD0FB6F894FA9AF99A0FBE4F5FBD
:1025F0005F4F403D510511F03196EDCFE1EBF5E035
:102600008081F999FECF1FBA52BD41BD80BD0FB682
:10261000F894FA9AF99A0FBE4F5F5F4F443D510507
:1026200011F03196EDCFE6EEF4E08081F999FECF1E
:102630001FBA52BD41BD80BD0FB6F894FA9AF99AFF
:102640000FBE4F5F5F4F483D510511F03196EDCF02
:10265000EAEEF4E08081F999FECF1FBA52BD41BD88
:1026600080BD0FB6F894FA9AF99A0FBE4F5F5F4F8C
:102670004C3D510511F03196EDCFEEEEF4E0808146
:10268000F999FECF1FBA52BD41BD80BD0FB6F89477
:10269000FA9AF99A0FBE4F5F5F4F403E510511F015
:1026A0003196EDCF80E290E09E878D87FE013D96CA
:1026B0008081F999FECF1FBA52BD41BD80BD0FB6D2
:1026C000F894FA9AF99A0FBE4F5F5F4F423E510558
:1026D00011F03196EDCFEAEBF5E08081F999FECF6C
:1026E0001FBA52BD41BD80BD0FB6F894FA9AF99A4F
:1026F0000FBE4F5F5F4F443E510511F03196EDCF55
:10270000E8EBF5E08081F999FECF1FBA52BD41BDDB
:1027100080BD0FB6F894FA9AF99A0FBE453E51055E
:1027200021F0319645EE50E0EDCF8091040290917A
:102730000502A0910602B09107028B8B9C8BAD8B9A
:10274000BE8BFE01739684E690E02081F999FECF5E
:102750001FBA92BD81BD20BD0FB6F894FA9AF99ABE
:102760000FBE8736910519F001963196EECFE1E55F
:10277000F1E0949108C08091C00085FFFCCF909358
:10278000C600319694919923B1F7E4E8F3E094916F
:1027900008C08091C00085FFFCCF9093C6003196A1
:1027A00094919923B1F78091C00085FFFCCF8AE016
:1027B0008093C60066960FB6F894DEBF0FBECDBFFD
:1027C000CF91DF910895EF92FF920F931F93DF93C4
:1027D000CF93CDB7DEB7E0970FB6F894DEBF0FBE4C
:1027E000CDBFDE011196E2E2F5E080E101900D92AD
:1027F0008150E1F7DE015196E2E1F5E080E10190E0
:102800000D928150E1F7DE019196E2E0F5E080E182
:1028100001900D928150E1F789819A81AB81BC8151
:102820008093810890938208A0938308B0938408D2
:1028300089899A89AB89BC898093710890937208C1
:10284000A0937308B093740889A19AA1ABA1BCA10D
:102850008093910890939208A0939308B093940862
:102860008D819E81AF81B88580938508909386087D
:10287000A0938708B09388088D899E89AF89B88D09
:102880008093750890937608A0937708B0937808A2
:102890008DA19EA1AFA1B8A58093950890939608AD
:1028A000A0939708B093980889859A85AB85BC85D5
:1028B0008093890890938A08A0938B08B0938C0822
:1028C000898D9A8DAB8DBC8D8093790890937A0811
:1028D000A0937B08B0937C0889A59AA5ABA5BCA55D
:1028E0008093990890939A08A0939B08B0939C08B2
:1028F0008D859E85AF85B88980938D0890938E08CD
:10290000A0938F08B09390088D8D9E8DAF8DB8A148
:1029100080937D0890937E08A0937F08B0938008F1
:102920008DA59EA5AFA5B8A980939D0890939E08FC
:10293000A0939F08B093A0080E94C86080E090E038
:10294000AAEFB4E48093A5089093A608A093A708E3
:10295000B093A80880E090E0A8ECB2E48093A908C6
:102960009093AA08A093AB08B093AC0820E030E0A5
:1029700040E050E02093A1083093A2084093A308C0
:102980005093A40880E29EE4A0E0B0E080936D083C
:1029900090936E08A0936F08B09370082093B908C5
:1029A0003093BA084093BB085093BC080F2EF0E058
:1029B000EF2EF0E0FF2EF0EA0F2FF0E41F2FF02DA6
:1029C000E092AD08F092AE080093AF081093B00803
:1029D0008DEC9CECACECBEE38093B1089093B20814
:1029E000A093B308B093B408E092B508F092B6088B
:1029F0000093B7081093B80820939E0530939F0565
:102A00004093A0055093A10520939A0530939B0510
:102A100040939C0550939D05209396053093970510
:102A200040939805509399058AE999E9AAE0B2E4A0
:102A30008093B1059093B205A093B305B093B4050C
:102A400080E090E0A0E7B1E48093E6049093E7048F
:102A5000A093E804B093E904C801B7010E94B394BD
:102A60006093EA047093EB048093EC049093ED047C
:102A700060E070E080EF91E40E94C1946093EE0406
:102A80007093EF048093F0049093F1040E94C49338
:102A900080E090E0A0E8BFE38093F2049093F30419
:102AA000A093F404B093F5048FE790E0909394041E
:102AB0008093930489E190E0909396048093950429
:102AC000E1E5F1E0949108C08091C00085FFFCCF62
:102AD0009093C600319694919923B1F7E7E5F1E020
:102AE000949108C08091C00085FFFCCF9093C600F0
:102AF000319694919923B1F78091C00085FFFCCF66
:102B00008AE08093C600E0960FB6F894DEBF0FBE51
:102B1000CDBFCF91DF911F910F91FF90EF9008955E
:102B20000F931F93DF93CF93CDB7DEB76A970FB69E
:102B3000F894DEBF0FBECDBF8091040290910502D4
:102B4000A0910602B09107028B8B9C8BAD8BBE8B44
:102B50001F8A188E198E1A8EECEBF5E006E410E051
:102B6000F999FECF12BD01BDF89A80B580830F5F41
:102B70001F4F0A34110511F03196F2CFE0ECF5E069
:102B8000F999FECF12BD01BDF89A80B580830F5F21
:102B90001F4F0E34110511F03196F2CFE4ECF5E041
:102BA000F999FECF12BD01BDF89A80B580830F5F01
:102BB0001F4F0035110511F03196F2CFE6ECF5E02C
:102BC000F999FECF12BD01BDF89A80B580830F5FE1
:102BD0001F4F0235110511F03196F2CFE8ECF5E008
:102BE000F999FECF12BD01BDF89A80B580830F5FC1
:102BF0001F4F0635110511F03196F2CFECECF5E0E0
:102C0000F999FECF12BD01BDF89A80B580830F5FA0
:102C10001F4F0835110511F03196F2CFEEECF5E0BB
:102C2000F999FECF12BD01BDF89A80B580830F5F80
:102C30001F4F0A35110511F03196F2CFE0EDF5E0A6
:102C4000F999FECF12BD01BDF89A80B580830F5F60
:102C50001F4F0C35110511F03196F2CFE2EDF5E082
:102C6000F999FECF12BD01BDF89A80B580830F5F40
:102C70001F4F0E35110511F03196F2CFE4EDF5E05E
:102C8000F999FECF12BD01BDF89A80B580830F5F20
:102C90001F4F0036110511F03196F2CFFE017796E5
:102CA000F999FECF12BD01BDF89A80B580830F5F00
:102CB0001F4F0436110511F03196F2CFFE013F96F9
:102CC000F999FECF12BD01BDF89A80B580830F5FE0
:102CD0001F4F0836110511F03196F2CFCE01439601
:102CE000BE01615F7F4F43E050E00E946E0E00978F
:102CF00009F0C6C1E1E8F8E0F999FECF12BD01BDC7
:102D0000F89A80B580830F5F1F4F0837110511F0C7
:102D10003196F2CFE1E7F8E0F999FECF12BD01BD9F
:102D2000F89A80B580830F5F1F4F0838110511F0A6
:102D30003196F2CFE1E9F8E0F999FECF12BD01BD7D
:102D4000F89A80B580830F5F1F4F0839110511F085
:102D50003196F2CF0E94C860E5EAF8E0F999FECF1B
:102D600012BD01BDF89A80B580830F5F1F4F0C39EB
:102D7000110511F03196F2CFE9EAF8E0F999FECFAA
:102D800012BD01BDF89A80B580830F5F1F4F003AD6
:102D9000110511F03196F2CFE1EAF8E0F999FECF92
:102DA00012BD01BDF89A80B580830F5F1F4F043AB2
:102DB000110511F03196F2CFE9EBF8E0F999FECF69
:102DC00012BD01BDF89A80B580830F5F1F4F083A8E
:102DD000110511F03196F2CFEDE6F8E0F999FECF4A
:102DE00012BD01BDF89A80B580830F5F1F4F0C3A6A
:102DF000110511F03196F2CFEDEAF8E0F999FECF26
:102E000012BD01BDF89A80B580830F5F1F4F003B54
:102E1000110511F03196F2CFE1EBF8E0F999FECF10
:102E200012BD01BDF89A80B580830F5F1F4F043B30
:102E3000110511F03196F2CFE5EBF8E0F999FECFEC
:102E400012BD01BDF89A80B580830F5F1F4F083B0C
:102E5000110511F03196F2CFE6E9F5E0F999FECFD0
:102E600012BD01BDF89A80B580830F5F1F4F043CEF
:102E7000110511F03196F2CFFE013196F999FECF8E
:102E800012BD01BDF89A80B580830F5F1F4F063CCD
:102E9000110599F7FE013396F999FECF12BD01BDD8
:102EA000F89A80B580830F5F1F4F083C110511F021
:102EB0003196F2CFFE013596F999FECF12BD01BDD4
:102EC000F89A80B580830F5F1F4F0A3C110511F0FF
:102ED0003196F2CFFE013796F999FECF12BD01BDB2
:102EE000F89A80B580830F5F1F4F0C3C110511F0DD
:102EF0003196F2CFFE013996F999FECF12BD01BD90
:102F0000F89A80B580830F5F1F4F0E3C110511F0BA
:102F10003196F2CFFE013B96F999FECF12BD01BD6D
:102F2000F89A80B580830F5F1F4F003D110511F0A7
:102F30003196F2CFE1EBF5E0F999FECF12BD01BD7C
:102F4000F89A80B580830F5F1F4F043D110511F083
:102F50003196F2CFE6EEF4E0F999FECF12BD01BD55
:102F6000F89A80B580830F5F1F4F083D110511F05F
:102F70003196F2CFEAEEF4E0F999FECF12BD01BD31
:102F8000F89A80B580830F5F1F4F0C3D110511F03B
:102F90003196F2CFEEEEF4E0F999FECF12BD01BD0D
:102FA000F89A80B580830F5F1F4F003E110511F026
:102FB0003196F2CFFE013D96F999FECF12BD01BDCB
:102FC000F89A80B580830F5F1F4F023E110511F004
:102FD0003196F2CFEAEBF5E0F999FECF12BD01BDD3
:102FE000F89A80B580830F5F1F4F043E110511F0E2
:102FF0003196F2CFE8EBF5E0F999FECF12BD01BDB5
:10300000F89A80B58083053E110521F0319605EED2
:1030100010E0F2CF8091B8059091B9059093940497
:10302000809393048091BA059091BB059093960488
:10303000809395040E94C493E1E5F1E0949108C067
:103040008091C00085FFFCCF9093C600319694918B
:103050009923B1F7E9E7F1E0949108C08091C000AD
:1030600085FFFCCF9093C600319694919923B1F7D8
:103070008091C00085FFFCCF8AE08093C60002C02B
:103080000E94E3136A960FB6F894DEBF0FBECDBF61
:10309000CF91DF911F910F910895CF93DF93C1E5F9
:1030A000D1E0FE01949108C08091C00085FFFCCF63
:1030B0009093C600319694919923B1F7E4E7F3E039
:1030C000949108C08091C00085FFFCCF9093C6000A
:1030D000319694919923B1F78091C00085FFFCCF80
:1030E0008AE08093C600FE019491E1E5F1E008C01A
:1030F0008091C00085FFFCCF9093C60031969491DB
:103100009923B1F74091810850918208609183081A
:10311000709184088CE693E00E94372440918508E2
:1031200050918608609187087091880889E693E03D
:103130000E9437244091890850918A0860918B0839
:1031400070918C0886E693E00E94372440918D08A8
:1031500050918E0860918F087091900883E693E0FB
:103160000E943724E8E0F2E007C08091C00085FFAC
:10317000FCCF31969093C60090819923B1F780914E
:10318000C00085FFFCCF8AE08093C600FE019491C9
:10319000E1E5F1E008C08091C00085FFFCCF90938D
:1031A000C600319694919923B1F7E9E4F3E0949144
:1031B00008C08091C00085FFFCCF9093C600319677
:1031C00094919923B1F78091C00085FFFCCF8AE0EC
:1031D0008093C600FE019491E1E5F1E008C0809182
:1031E000C00085FFFCCF9093C6003196949199233F
:1031F000B1F7409171085091720860917308709115
:10320000740880E493E00E9437244091750850913F
:10321000760860917708709178088DE393E00E94BA
:1032200037244091790850917A0860917B08709119
:103230007C088AE393E00E94372440917D085091F6
:103240007E0860917F087091800887E393E00E9478
:103250003724E8E0F2E007C08091C00085FFFCCF92
:1032600031969093C60090819923B1F78091C00068
:1032700085FFFCCF8AE08093C600FE019491E1E5D2
:10328000F1E008C08091C00085FFFCCF9093C6009C
:10329000319694919923B1F7E9E1F3E0949108C054
:1032A0008091C00085FFFCCF9093C6003196949129
:1032B0009923B1F78091C00085FFFCCF8AE080930D
:1032C000C600FE019491E1E5F1E008C08091C000E4
:1032D00085FFFCCF9093C600319694919923B1F766
:1032E00040919108509192086091930870919408D0
:1032F00080E193E00E944B244091950850919608FC
:1033000060919708709198088DE093E00E944B249B
:103310004091990850919A0860919B0870919C087F
:103320008AE093E00E944B2440919D0850919E08B2
:1033300060919F087091A00887E093E00E944B2461
:10334000E8E0F2E007C08091C00085FFFCCF319635
:103350009093C60090819923B1F78091C00085FFBA
:10336000FCCF8AE08093C600FE019491E1E5F1E094
:1033700008C08091C00085FFFCCF9093C6003196B5
:1033800094919923B1F7E2EDF2E0949108C0809115
:10339000C00085FFFCCF9093C6003196949199238D
:1033A000B1F78091C00085FFFCCF8AE08093C60012
:1033B000FE019491E1E5F1E008C08091C00085FF35
:1033C000FCCF9093C600319694919923B1F7409128
:1033D000A5085091A6086091A7087091A80889ECEB
:1033E00092E00E9437244091A9085091AA08609168
:1033F000AB087091AC0886EC92E00E943724E8E0BC
:10340000F2E007C08091C00085FFFCCF3196909319
:10341000C60090819923B1F78091C00085FFFCCF51
:103420008AE08093C600FE019491E1E5F1E008C0D6
:103430008091C00085FFFCCF9093C6003196949197
:103440009923B1F7E3E1F2E0949108C08091C000C4
:1034500085FFFCCF9093C600319694919923B1F7E4
:103460008091C00085FFFCCF8AE08093C600FE01FA
:103470009491E1E5F1E008C08091C00085FFFCCFA8
:103480009093C600319694919923B1F74091A10889
:103490005091A2086091A3087091A4088AE092E07C
:1034A0000E9437244091B9085091BA086091BB0836
:1034B0007091BC0887E092E00E94372440916D082B
:1034C00050916E0860916F087091700884E092E0EE
:1034D0000E944B244091AD085091AE086091AF0816
:1034E0007091B00881E092E00E9437244091B108C9
:1034F0005091B2086091B3087091B4088EEF91E0DA
:103500000E9437244091B5085091B6086091B708E1
:103510007091B8088BEF91E00E943724E8E0F2E068
:1035200007C08091C00085FFFCCF31969093C60004
:1035300090819923B1F78091C00085FFFCCF8AE08C
:103540008093C600FE019491E1E5F1E008C080910E
:10355000C00085FFFCCF9093C600319694919923CB
:10356000B1F7E9EEF1E0949108C08091C00085FFC9
:10357000FCCF9093C600319694919923B1F7809136
:10358000C00085FFFCCF8AE08093C600FE019491C5
:10359000E1E5F1E008C08091C00085FFFCCF909389
:1035A000C600319694919923B1F7409196055091B8
:1035B0009705609198057091990580EE91E00E94C1
:1035C000372440919A0550919B0560919C0570911C
:1035D0009D058DED91E00E94372440919E0550910C
:1035E0009F056091A0057091A1058AED91E00E9470
:1035F0003724E8E0F2E007C08091C00085FFFCCFEF
:1036000031969093C60090819923B1F78091C000C4
:1036100085FFFCCF8AE08093C600FE019491E1E52E
:10362000F1E008C08091C00085FFFCCF9093C600F8
:10363000319694919923B1F7ECECF1E0949108C0A4
:103640008091C00085FFFCCF9093C6003196949185
:103650009923B1F78091C00085FFFCCF8AE0809369
:10366000C600FE019491E1E5F1E008C08091C00040
:1036700085FFFCCF9093C600319694919923B1F7C2
:103680004091E6045091E7046091E8047091E904E8
:1036900082EC91E00E9437246091EA047091EB047F
:1036A0008091EC049091ED040E94BA94AB01BC01AE
:1036B0008FEB91E00E9437246091EE047091EF044B
:1036C0008091F0049091F1040E94C894AB01BC0178
:1036D0008CEB91E00E943724E8E0F2E007C0809193
:1036E000C00085FFFCCF31969093C600908199234E
:1036F000B1F78091C00085FFFCCF8AE08093C600BF
:10370000FE019491E1E5F1E008C08091C00085FFE1
:10371000FCCF9093C600319694919923B1F7E4EAD7
:10372000F1E0949108C08091C00085FFFCCF909398
:10373000C600319694919923B1F7E9E0F2E007C011
:103740008091C00085FFFCCF31969093C600908198
:103750009923B1F760919504709196048CE698E0F6
:103760004AE050E00E942C5BEEE0F2E007C080915E
:10377000C00085FFFCCF31969093C60090819923BD
:10378000B1F760919304709194048CE698E04AE05C
:1037900050E00E942C5BE8E0F2E007C08091C0009E
:1037A00085FFFCCF31969093C60090819923B1F7A5
:1037B0008091C00085FFFCCF8AE08093C600FE01A7
:1037C0009491E1E5F1E008C08091C00085FFFCCF55
:1037D0009093C600319694919923B1F7E3E9F1E013
:1037E000949108C08091C00085FFFCCF9093C600E3
:1037F000319694919923B1F74091B1055091B2055A
:103800006091B3057091B40570588CE698E022E0A1
:1038100030E00E94075CE8E0F2E007C08091C00061
:1038200085FFFCCF31969093C60090819923B1F724
:103830008091C00085FFFCCF8AE08093C600DF91B5
:10384000CF9108950895CF93DF932091EC053091A7
:10385000ED052F5F3F4F3093ED052093EC05C091B0
:10386000EA05D091EB05C217D30758F4CF37D1053D
:1038700040F49FB7F89480910B01806280930B0114
:103880009FBFA091EE05B091EF05A217B30758F4C2
:10389000AF37B10540F49FB7F89480910B018F7E4C
:1038A00080930B019FBFE091F205F091F305E217C1
:1038B000F30720F4EF37F10508F4739A6091F405EB
:1038C0007091F5056217730758F46F37710540F46E
:1038D0009FB7F894809102018061809302019FBF9D
:1038E0004091F6055091F7054217530720F44F37E2
:1038F000510508F42E9A8091F0059091F1058217F8
:10390000930740F5CD2B41F09FB7F89480910B01C0
:103910008F7D80930B019FBFAB2B41F09FB7F89435
:1039200080910B01806180930B019FBFEF2B09F009
:103930007398672B41F09FB7F894809102018F7EB6
:10394000809302019FBF452B09F02E981092ED0540
:103950001092EC05DF91CF91089540910606442323
:1039600049F480910706882329F48091080688236A
:1039700009F492C081E080930906209104063091F9
:10398000050680919A0490919B048217930708F092
:1039900078C020919C04222311F1442349F08091A6
:1039A000F2059091F30501969093F3058093F2054B
:1039B00080910706882349F08091F4059091F505E0
:1039C00001969093F5058093F4058091080688236D
:1039D00059F18091F6059091F705019621C0442395
:1039E00049F08091F2059091F30501979093F305CA
:1039F0008093F20580910706882349F08091F405B1
:103A00009091F50501979093F5058093F4058091C9
:103A10000806882349F08091F6059091F7050197F3
:103A20009093F7058093F6058091F2059091F30548
:103A30008F37910511F0892B11F44423D1F4809133
:103A4000F4059091F5058F37910511F0892B21F43C
:103A500080910706882369F48091F6059091F70517
:103A60008F37910511F0892B41F480910806882346
:103A700021F081E0282720939C04109205061092E3
:103A80000406809104069091050601969093050620
:103A9000809304064423A9F480910706882389F4BF
:103AA00080910806882369F480910906882349F0EB
:103AB00010920506109204061092090681E0809388
:103AC0009C0408958091DE05089567707070E82F5A
:103AD000F0E0EE5BF94E84918B3028F48830A0F44E
:103AE000863090F106C08E30D0F08F50833060F574
:103AF00021C08091B100887F8093B1008091B10096
:103B0000862B8093B100089580919100887F8093E7
:103B1000910080919100862B80939100089580916F
:103B2000A100887F8093A1008091A100862B8093C3
:103B3000A100089580912101887F809321018091C7
:103B40002101862B8093210108950F931F9380916B
:103B50009304909194049093B9058093B805809153
:103B60009504909196049093BB058093BA050FED50
:103B700015E0C8010E948787C80105960E948787C3
:103B80001F910F9108958091F2059091F305909304
:103B9000F9058093F8058091F4059091F5059093CF
:103BA000FB058093FA058091F6059091F7059093B7
:103BB000FD058093FC050E9497948FE790E0909319
:103BC000F3058093F2059093F5058093F405109228
:103BD000F7051092F6058091DE05882309F036C0BE
:103BE00081E08093DE0580911A0690911B06A091DA
:103BF0001C06B0911D0680931E0690931F06A0938D
:103C00002006B0932106EAE9F3E0949108C0809180
:103C1000C00085FFFCCF9093C60031969491992304
:103C2000B1F7E1EAF3E0949108C08091C00085FF0C
:103C3000FCCF9093C600319694919923B1F780916F
:103C4000C00085FFFCCF8AE08093C600769A85E6A7
:103C500090E09093AD0E8093AC0E08958091F205A4
:103C60009091F3059093F9058093F8058091F40500
:103C70009091F5059093FB058093FA058091F605E8
:103C80009091F7059093FD058093FC05A098119AFB
:103C900080E090E0A0E0B0E0809300069093010601
:103CA000A0930206B09303060E9497945F9A109225
:103CB000AE058A9A1092AF059FB7F89480910801DB
:103CC0008160809308019FBF1092B005129A8FE720
:103CD00090E09093F3058093F2051092F505109211
:103CE000F4051092F7051092F60581E08093FE0529
:103CF0008093DE05EAE9F3E0949108C08091C0006A
:103D000085FFFCCF9093C600319694919923B1F72B
:103D1000E7E1F4E0949108C08091C00085FFFCCFFA
:103D20009093C600319694919923B1F78091C00089
:103D300085FFFCCF8AE08093C600769A84E690E007
:103D40009093AD0E8093AC0E08958091030180FD99
:103D500009C07A9907C0669905C081E080939F04E5
:103D60000E942E1E659B09C04F9907C0669905C029
:103D700081E080939E040E942E1E649B0AC0809165
:103D80009E04882331F04F9904C0669902C00E94B6
:103D90002E1E8091030181FD0AC080919F0488231B
:103DA00031F07A9904C0669902C00E942E1E0895CF
:103DB0008091F2059091F3059093F9058093F805B1
:103DC0008091F4059091F5059093FB058093FA0599
:103DD0008091F6059091F7059093FD058093FC0581
:103DE000A098119A80E090E0A0E0B0E080930006F7
:103DF00090930106A0930206B09303060E94979445
:103E00005F9A1092AE058A9A1092AF059FB7F89408
:103E1000809108018160809308019FBF1092B005D6
:103E2000129A8FE790E09093F3058093F205109239
:103E3000F5051092F4051092F7051092F60581E051
:103E40008093FE058093DE05EAE9F3E0949108C0D3
:103E50008091C00085FFFCCF9093C600319694916D
:103E60009923B1F7E6E3F4E0949108C08091C00093
:103E700085FFFCCF9093C600319694919923B1F7BA
:103E80008091C00085FFFCCF8AE08093C600769ABF
:103E900086E690E09093AD0E8093AC0E08950E945C
:103EA0000AAA6093220670932306809324069093B7
:103EB0002506E5E5F4E0949108C08091C00085FFF7
:103EC000FCCF9093C600319694919923B1F78091DD
:103ED000C00085FFFCCF8AE08093C60008951F9341
:103EE000182F84E49FE060E570E00E943CA584E424
:103EF0009FE0612F0E94BEA584E49FE00E9401A67E
:103F000084E49FE060E570E041E050E00E9412A68A
:103F10000E940AAA609314067093150680931606F1
:103F20009093170611E002C01093180684E49FE0F6
:103F30000E9446A5892BF1F4809118068823D1F4BC
:103F40000E940AAA20911406309115064091160687
:103F500050911706621B730B840B950B695E7340BF
:103F60008040904018F3E0CF84E49FE00E944FA58A
:103F70001F910895809118068823B1F38FE3F8CF3D
:103F800084E49FE00E9416A680E00E946F1F809349
:103F90000B0681E00E946F1F80930C0682E00E9456
:103FA0006F1F80930D0683E00E946F1F80930E06A3
:103FB00084E00E946F1F80930F0685E00E946F1FB0
:103FC0008093100686E00E946F1F8093110687E0A1
:103FD0000E946F1F982F80931206109218068091EE
:103FE0000B068F33E9F480910C068F33C9F480916E
:103FF0000D068F33A9F480910E068F3389F48091DA
:104000000F068F3369F4809110068F3349F4809145
:1040100011068F3329F49F3319F410921306089573
:1040200081E0809313060895AF92BF92CF92DF9202
:10403000EF92FF920F931F930E940AAA20912A06E3
:1040400030912B0640912C0650912D0626173707EC
:104050004807590708F067C02C503E4F4F4F5F4F3D
:1040600020932A0630932B0640932C0650932D065E
:104070006091850E7091860E882777FD8095982F28
:104080000E9462B07B018C0120E030E040E050E013
:104090000E94C0AF882354F40F2EF0E0EF2EF0E022
:1040A000FF2EF0E00F2FF0E01F2FF02DD0908F0E9D
:1040B000C090900EB090910EA090920EC801B701E2
:1040C0002D2D3C2D4B2D5A2D0E94CEB1181634F0BB
:1040D0008D2D9C2DAB2DBA2D7C018D01C801B70112
:1040E00020E030E04CE552E40E94CEB118165CF4BA
:1040F00080912E06882339F485E360E00E9466AC47
:1041000081E080932E06C801B70120E030E048E549
:1041100052E40E94C0AF882334F485E361E00E943A
:1041200066AC10922E061F910F91FF90EF90DF90DA
:10413000CF90BF90AF900895EF92FF920F931F938F
:104140000E940AAAE0902606F09027060091280611
:1041500010912906209122063091230640912406D1
:1041600050912506621B730B840B950BE616F70620
:104170000807190738F4E114F1040105110511F0DD
:104180000E942E1E8091A4049091A504A091A604E3
:10419000B091A7040097A105B10591F10E940AAA68
:1041A0002091220630912306409124065091250645
:1041B000621B730B840B950B2091A4043091A50412
:1041C0004091A6045091A7042617370748075907BE
:1041D000B8F49091AE0D8091AF0D981789F45F9A65
:1041E0001092AE058A9A1092AF059FB7F89480910D
:1041F00008018160809308019FBF1092B005129A58
:104200000E9414200E9404648091090180FF26C04E
:104210004F9B1AC07A9B18C08091060180FF14C082
:10422000029B12C0909B1AC060910006709101061B
:10423000809102069091030620E030E040E050E0DB
:104240000E94CEB1181654F480919804882331F05E
:1042500080919904882311F00E94D81E659B3AC072
:10426000649B38C081E08093FF05769A1092060621
:10427000109207061092080684E690E090939B0443
:1042800080939A041092F3051092F2051092F505AE
:104290001092F4058FEF90E09093F7058093F60568
:1042A00003C076981092FF058091090180FD07C038
:1042B00080919804882319F481E0809398040E94E7
:1042C000A51E0E94231C0E94AD1C1F910F91FF9000
:1042D000EF9008958091FF05882319F7E5CF6F923D
:1042E0007F928F929F92AF92BF92CF92DF92EF9286
:1042F000FF920F931F93F82E60912F067091300656
:104300008091310690913206209133063091340627
:1043100040913506509136060E94DBB13B014C01BD
:1043200000D000D000D00DB71EB70F5F1F4F6091B7
:104330006F0470917004882777FD8095982F0E94F4
:1043400062B02091A8043091A9044091AA04509130
:10435000AB040E94A0B220E030E040E752E40E94AB
:10436000C7AF20E030E048EC52E40E94C7AF5B01E9
:104370006C01F8016082718282829382F482809162
:10438000B505858386E895E06BE376E04FE256E07D
:1043900020E001E032E0E32E0E940A5C80913B06BF
:1043A00090913C06A0913D06B0913E068093860513
:1043B00090938705A0938805B093890580913F0667
:1043C00090914006A0914106B091420680938A05E3
:1043D00090938B05A0938C05B0938D058091430637
:1043E00090914406A0914506B091460680938E05B3
:1043F00090938F05A0939005B09391058091470607
:1044000090914806A0914906B0914A068093920582
:1044100090939305A0939405B09395058DB79EB79F
:1044200006960FB6F8949EBF0FBE8DBF0E940AAAD3
:1044300060932206709323068093240690932506AA
:104440001F910F91FF90EF90DF90CF90BF90AF90B2
:104450009F908F907F906F9008954F925F926F9290
:104460007F928F929F92AF92BF92CF92DF92EF9204
:10447000FF920F931F93DF93CF9300D000D0CDB75F
:10448000DEB70E940AAA60932206709323068093E7
:1044900024069093250680913B0690913C06A091BE
:1044A0003D06B0913E0689839A83AB83BC836091BD
:1044B00086057091870580918805909189052981ED
:1044C0003A814B815C810E94C0AF882309F09DC076
:1044D00040903F0650904006609041067090420622
:1044E00060918A0570918B0580918C0590918D0566
:1044F000A30192010E94C0AF882309F086C000D0BA
:10450000CDB6DEB60894C11CD11CE0904306F090F5
:10451000440600914506109146066091A8047091EA
:10452000A9048091AA049091AB0420E030E040E718
:1045300052E40E94C7AF4B015C0185EB95E0D601C8
:104540008D939C9369817A818B819C81A3019201D7
:10455000E7E4CE2EE6E0DE2E0E94ED660F900F908F
:1045600080913B0690913C06A0913D06B0913E069D
:104570008093860590938705A0938805B09389055D
:1045800080913F0690914006A0914106B09142066D
:1045900080938A0590938B05A0938C05B0938D052D
:1045A0008091430690914406A0914506B09146063D
:1045B00080938E0590938F05A0939005B0939105FD
:1045C0008091470690914806A0914906B0914A060D
:1045D0008093920590939305A0939405B0939505CD
:1045E0000F900F900F900F90CF91DF911F910F912F
:1045F000FF90EF90DF90CF90BF90AF909F908F9003
:104600007F906F905F904F90089500D0CDB6DEB64A
:104610000894C11CD11C40903F0650904006609009
:10462000410670904206E0904306F09044060091E7
:1046300045061091460660916F04709170048827BA
:1046400077FD8095982F0E9462B02091A804309148
:10465000A9044091AA045091AB040E94A0B220E0AA
:1046600030E040E752E40E94C7AF20E030E048EC81
:1046700052E40E94C7AF4B015C0185EB95E0F60167
:10468000918380835FCF8CE698E00E94235AE8E50F
:10469000F4E0949108C08091C00085FFFCCF909316
:1046A000C600319694919923B1F740911A06509122
:1046B0001B0660911C0670911D064F5F5F4F6F4F88
:1046C0007F4F8CE698E02AE030E00E94F75A809114
:1046D000C00085FFFCCF8AE08093C6000E944F1F78
:1046E00008954F925F926F927F928F929F92AF92B6
:1046F000BF92CF92DF92EF92FF920F931F93409061
:10470000A8045090A9046090AA047090AB040F2EE6
:10471000F0E0AF2EF0E4BF2EFCE1CF2EF6E4DF2E6A
:10472000F02DA092A804B092A904C092AA04D0923D
:10473000AB046093860570938705809388059093FA
:10474000890520938A0530938B0540938C055093FF
:104750008D05E0928E05F0928F05009390051093E1
:10476000910500D0E5EBF5E0ADB7BEB71296FC932E
:10477000EE931197F2E9CF2EF5E0DF2E0F2EFBEA34
:104780008F2EFAEA9F2EF6E2AF2EF3E4BF2EF02D25
:104790000E94ED660F900F900E94ED8B4092A8044E
:1047A0005092A9046092AA047092AB041F910F91D9
:1047B000FF90EF90DF90CF90BF90AF909F908F9041
:1047C0007F906F905F904F9008958091A804909192
:1047D000A904A091AA04B091AB04809350069093D1
:1047E0005106A0935206B093530680916F049091A6
:1047F0007004909385058093840584E690E09093FF
:10480000700480936F040E940AAA6093220670933A
:104810002306809324069093250681E00E94EA8A6D
:10482000089580E00E94EA8A809150069091510696
:10483000A0915206B09153068093A8049093A904C6
:10484000A093AA04B093AB04809184059091850550
:104850009093700480936F040E940AAA60932206CA
:104860007093230680932406909325060895FC01F7
:10487000949108C08091C00085FFFCCF9093C60042
:10488000319694919923B1F78CE698E022E030E0DC
:104890000E94075C0895FC01949108C08091C000BB
:1048A00085FFFCCF9093C600319694919923B1F780
:1048B0008CE698E02AE030E00E94C75A08954091C3
:1048C00056065091570620E630E0B901469F900108
:1048D000479F300D569F300D1124682F772767FDB5
:1048E0007095C901885A994F0E945C0E9C01909363
:1048F00055068093540680E0232B09F081E008954B
:1049000085B5887F826085BD84E06FE770E00E9496
:10491000D3AA85E061E00E94B3AB87E061E00E942A
:10492000B3AB269A85E361E00E94B3AB81E360E01C
:104930000E94B3AB8DE261E00E94B3AB8CE261E018
:104940000E94B3AB89E261E00E94B3AB87E161E012
:104950000E94B3AB89E161E00E94B3AB8CE060E000
:104960000E94B3AB8AE060E00E94B3AB89E060E0F4
:104970000E94B3AB83E060E00E94B3AB6A98809181
:1049800001018068809301019B989C98569A6E9AC9
:10499000739A9FB7F894809102018061809302011D
:1049A0009FBF2E9A8CE06FEF70E00E94D3AA2898E8
:1049B0009FB7F89480910B018F7E80930B019FBF6E
:1049C0009FB7F89480910B01806280930B019FBF89
:1049D000A098119A139A9FB7F894809102018F774B
:1049E000809302019FBF5E9A1092ED051092EC0534
:1049F0008FE790E09093F1058093F0051092EF051A
:104A00001092EE051092EB051092EA051092F30554
:104A10001092F2051092F5051092F4051092F70528
:104A20001092F6058FED95E060ED75E00E948488A8
:104A300084EE95E066EB73E00E9484881092FE0598
:104A400021E02093980480E090E0A0E0B0E0809323
:104A5000000690930106A0930206B09303061092FD
:104A6000F3051092F2051092F5051092F4051092DC
:104A7000F7051092F605209306062093070610927C
:104A8000080688EC90E090939B0480939A040E941F
:104A9000C01F84EF91E020E931E0F9013197F1F78F
:104AA0000197D9F785B5887F836085BD84E06FEF76
:104AB00070E00E94D3AA8CE291E020E931E0F90194
:104AC0003197F1F70197D9F785B5887F826085BD69
:104AD00084E06FE770E00E94D3AA84EF91E020E9C0
:104AE00031E0F9013197F1F70197D9F785B5887F62
:104AF000836085BD84E06FEF70E00E94D3AA0895C3
:104B00002091890430918A0437FD40C01398C9016F
:104B1000880F991F880F991F820F931F81529A4FF8
:104B200060E070E00E9490892091890430918A04AD
:104B3000C901880F991F880F991F820F931F6091D9
:104B400093047091940481529A4F0E9484886CE27D
:104B500071E080E090E00E9418AA209189043091D1
:104B60008A04C901880F991F880F991F820F931F0C
:104B700081529A4F0E94A18788E893E120E931E0B1
:104B8000F9013197F1F70197D9F7139A0895209118
:104B9000890430918A0437FD40C01398C901880FF9
:104BA000991F880F991F820F931F81529A4F60E0BF
:104BB00070E00E9490892091890430918A04C90193
:104BC000880F991F880F991F820F931F609195047A
:104BD0007091960481529A4F0E9484886CE271E031
:104BE00080E090E00E9418AA2091890430918A0404
:104BF000C901880F991F880F991F820F931F815237
:104C00009A4F0E94A18788E893E120E931E0F901F9
:104C10003197F1F70197D9F7139A08952F923F92A0
:104C20004F925F926F927F928F929F92AF92BF92BC
:104C3000CF92DF92EF92FF920F931F93DF93CF9368
:104C4000CDB7DEB764970FB6F894DEBF0FBECDBF09
:104C50009C8B8B8B8330910508F0D7C3FC01EB55FF
:104C6000F94FE491AE2EBB24A7FCB09480910A06C4
:104C7000882349F02B893C892230310521F4B094F6
:104C8000A194B108B394EB89FC89EE0FFF1FEE0FDE
:104C9000FF1FEA57FA4F80E090E0A0E0B0E0808389
:104CA0009183A283B383609186057091870580917B
:104CB00088059091890520918A0530918B05409156
:104CC0008C0550918D05E0908E05F0908F05009138
:104CD000900510919105E2E9CE2EE5E0DE2E0E94CE
:104CE00011611E821D828B899C89029721F4A1E0AB
:104CF000B0E0BE83AD8380919D0490E0ED81FE81A4
:104D00008E239F23892B19F00E94802520C0EB89D8
:104D1000FC89EE0FFF1FEB57FB4F0190F081E02D58
:104D2000F7FD15C0CF01880F991F880F991F8E0FAF
:104D30009F1FEB89FC89EE0FFF1FEE0FFF1FE5574A
:104D4000FB4F6081718181529A4F0E9484880B8948
:104D50001C89000F111F000F111FF801E855F94FB2
:104D6000C590D590E590F490B501882777FD8095A2
:104D7000982F0E9462B069837A838B839C83BBE304
:104D8000AB2EB6E0BB2EA00EB11EC701B60120E0CF
:104D900030E040EC5FE30E94A0B229813A814B8170
:104DA0005C810E94A0B2D5016D937D938D939C93FD
:104DB0001397015A1B4FF80180819181A281B38121
:104DC0008093A8049093A904A093AA04B093AB0481
:104DD00080910A068823D9F02B893C89223031053D
:104DE000B1F46091670470916804809169049091B6
:104DF0006A0420E030E040EC50E40E94A0B26093EE
:104E0000A8047093A9048093AA049093AB0400D0E3
:104E1000CDB6DEB60894C11CD11C40903B06509024
:104E20003C0660903D0670903E0680913F06909152
:104E30004006A0914106B09142068F839887A987CA
:104E4000BA87E0904306F090440600914506109121
:104E500046066091A8047091A9048091AA049091DB
:104E6000AB0420E030E040E752E40E94C7AF4B01C2
:104E70005C0185EB95E0D6018D939C93C301B20153
:104E80002F81388549855A85A7E4CA2EA6E0DA2EF7
:104E90000E94ED660F900F900E94ED8B80910A06A4
:104EA0008823E9F4EB89FC893297C9F41092F30561
:104EB0001092F2051092F5051092F4051092F70584
:104EC0001092F60581E08093060610920706109274
:104ED000080688EC90E090939B0480939A04AB883A
:104EE000BC88AA0CBB1CAA0CBB1CF501EA57FA4FE4
:104EF00080E090E0A0E0B0E080839183A283B38360
:104F0000609186057091870580918805909189054B
:104F100020918A0530918B0540918C0550918D052B
:104F2000E0908E05F0908F0500919005109191050D
:104F3000E2E9CE2EE5E0DE2E0E94116114EB212E77
:104F400016E0312E2A0C3B1CF1016591759185917B
:104F500094912BE336E0A20EB31E905829813A813A
:104F60004B815C810E94A0B2D5016D937D938D939E
:104F70009C93139700D0CDB6DEB60894C11CD11C0B
:104F800040903B0650903C0660903D0670903E0677
:104F900080913F0690914006A0914106B091420653
:104FA0008B879C87AD87BE87E0904306F0904406D0
:104FB00000914506109146066091A8047091A904DD
:104FC0008091AA049091AB0420E030E040E752E4E5
:104FD0000E94C7AF4B015C0185EB95E0D6018D9334
:104FE0009C93C301B2012B853C854D855E85B7E45A
:104FF000CB2EB6E0DB2E0E94ED660F900F900E9444
:10500000ED8B80910A06882309F5EB89FC8932979C
:10501000E9F41092F3051092F2051092F505109242
:10502000F4051092F7051092F6051092060681E03D
:10503000809307061092080688EC90E090939B04FA
:1050400080939A040E94C7250E948025F101259132
:105050003591459154910B891C89000F111F000F48
:10506000111FFBE3EF2EF6E0FF2EE00EF11ECA014A
:10507000B9010E94E7AE29813A814B815C810E948F
:10508000A0B2D7016D937D938D939C931397015A92
:105090001B4FF801608171818281938120E030E0B3
:1050A00040E05FE30E94A0B26093A8047093A9045B
:1050B0008093AA049093AB0480910A068823D9F4C4
:1050C0002B893C8922303105B1F4609167047091DD
:1050D00068048091690490916A0420E030E040E225
:1050E00051E40E94C7AF6093A8047093A904809311
:1050F000AA049093AB0400D0CDB6DEB60894C11CD0
:10510000D11C40903B0650903C0660903D0670904C
:105110003E0680913F0690914006A0914106B091D5
:1051200042068F87988BA98BBA8BE0904306F0904C
:10513000440600914506109146066091A8047091BE
:10514000A9048091AA049091AB0420E030E040E7EC
:1051500052E40E94C7AF4B015C0185EB95E0D6019C
:105160008D939C93C301B2012F85388949895A894F
:10517000E7E4CE2EE6E0DE2E0E94ED660F900F9063
:105180000E94ED8B0B891C89000F111F000F111F4E
:10519000F801E054F94F659175918591949146E835
:1051A000C42E45E0D42EC00ED11E36E9E32E35E0E4
:1051B000F32EE00EF11EF7012081318142815381EF
:1051C0000E94E7AED6016D937D938D939C931397C8
:1051D000F801E453F94F659175918591949122EA14
:1051E000C22E25E0D22EC00ED11EF70120813181C2
:1051F000428153810E94E7AED6016D937D938D93DA
:105200009C931397F801E852F94F65917591859138
:10521000949107581B4FF7012081318142815381BE
:105220000E94E7AED8016D937D938D939C93139765
:10523000EB89FC89329781F480910A06882361F01A
:105240008AE999EDAEE4B3E480938E0590938F05DF
:10525000A0939005B0939105EB89FC89EE0FFF1F99
:10526000EE0FFF1FDF01AA57BA4F8D919D910D9050
:10527000BC91A02DE55CF94F80839183A283B38319
:1052800080E090E0A0E0B0E08093A8049093A904AF
:10529000A093AA04B093AB040E94E38AEB89FC8933
:1052A000E255FA4F81E08083AB89BC89AA0FBB1F0E
:1052B000FD01EB57FB4F0190F081E02DF7FD11C090
:1052C000CF01880F991F880F991F8E0F9F1FAA0F5C
:1052D000BB1FA357BB4F6D917C9181529A4F0E9487
:1052E000848880919D0490E02D813E81282339237C
:1052F000232B09F48AC00E94112400D04DB65EB65B
:105300000894411C511CA0908605B0908705C09060
:105310008805D090890560908A0570908B058090F3
:105320008C0590908D0560918E0570918F05809110
:1053300090059091910520E030E040E050E40E941B
:10534000E7AE7B018C01A5EB2A2EA5E03A2ED20117
:105350002D923C92C601B501A4019301F2E9CF2E32
:10536000F5E0DF2E0F2EF0E08F2EF0E09F2EF0EA1A
:10537000AF2EF0E4BF2EF02D0E94ED660F900F903F
:105380000E94ED8B0E94C72500D04DB65EB60894F2
:10539000411C511CA0908605B0908705C0908805DF
:1053A000D090890560908A0570908B0580908C055F
:1053B00090908D0560918E0570918F05809190057C
:1053C0009091910520E030E040E850E40E94E6AE84
:1053D0007B018C01F20131822082C601B501A4015A
:1053E0009301E2E9CE2EE5E0DE2E0F2EF0E08F2EC7
:1053F000F0E09F2EF0EAAF2EF0E4BF2EF02D0E94D9
:10540000ED660F900F900E94ED8B64960FB6F894A6
:10541000DEBF0FBECDBFCF91DF911F910F91FF90E7
:10542000EF90DF90CF90BF90AF909F908F907F9044
:105430006F905F904F903F902F9008950F931F9320
:10544000CF93DF938FED95E06BE070E00E94908941
:1054500084EE95E066E070E00E949089C5E8D4E0B3
:105460000DE814E02881398137FD0EC0C901880F8D
:10547000991F880F991F820F931FF8016081718116
:1054800081529A4F0E94848822960C5F1F4FF4E04D
:10549000CB38DF0739F76CE271E080E090E00E94E2
:1054A00018AA2091890430918A04C901880F991F94
:1054B000880F991F820F931F81529A4F0E94A187D4
:1054C000DF91CF911F910F9108952F923F924F92AC
:1054D0005F926F927F928F929F92AF92BF92CF9284
:1054E000DF92EF92FF920F931F93DF93CF93CDB78D
:1054F000DEB764970FB6F894DEBF0FBECDBF6D83E5
:105500007E838F83988729873A874B875C87609152
:105510008605709187058091880590918905209175
:105520008A0530918B0540918C0550918D050E9424
:1055300071236D817E818F81988520E030E048E87D
:1055400051E40E94E6AE4B015C0169857A858B854A
:105550009C8520E030E046E752E40E94E6AE9B01E5
:10556000AC01E0908E05F0908F05009190051091B0
:105570009105C501B4010E947123CC2011F00E9455
:1055800080258DEA94E00E9426A2609167047091C4
:1055900068048091690490916A046093A8047093F0
:1055A000A9048093AA049093AB0400D0CDB6DEB6D4
:1055B0000894C11CD11CE0908605F09087050091ED
:1055C00088051091890540908A0550908B05609060
:1055D0008C0570908D0520E030E040E752E40E9499
:1055E000C7AF4B015C01E5EBF5E0D601ED93FC9311
:1055F000C801B701A30192010F2EF0E0EF2EF0E0F9
:10560000FF2EF0E20F2FF1EC1F2FF02DA2E9CA2E92
:10561000A5E0DA2E0E94ED660F900F900E94ED8BB0
:1056200082E00E94CE8B4B015C01609186057091F7
:105630008705809188059091890520918A05309190
:105640008B0540918C0550918D05850174010E9458
:1056500011612CEB36E0F90185919591A591B491FA
:1056600089839A83AB83BC83C501B40129813A81C4
:105670004B815C810E94E7AE6D877E878F87988B18
:1056800000D0CDB6DEB60894C11CD11CE0908605D2
:10569000F0908705009188051091890540908A0552
:1056A00050908B0560908C0570908D056091A804DA
:1056B0007091A9048091AA049091AB0420E030E09D
:1056C00040E752E40E94C7AF4B015C01E5EBF5E017
:1056D000D601ED93FC93C801B701A3019201ED84BB
:1056E000FE840F851889F2E9CF2EF5E0DF2E0E94A7
:1056F000ED660F900F900E94ED8B609167047091A2
:1057000068048091690490916A0420E030E040E8E8
:105710005EE30E94A0B25B016C016093A8047093E9
:10572000A9048093AA049093AB0400D02DB63EB692
:105730000894211C311C409086055090870560908C
:1057400088057090890580918A0590918B05A091BC
:105750008C05B0918D05898B9A8BAB8BBC8B698145
:105760007A818B819C8120E030E040E050EC0E9407
:10577000A0B29B01AC016D857E858F8598890E94C2
:10578000E7AE7B018C01C601B50120E030E040E7C7
:1057900052E40E94C7AF4B015C01E5EBF5E0D1019B
:1057A000ED93FC93C301B20129893A894B895C8945
:1057B000E2E9CE2EE5E0DE2E0E94ED660F900F901E
:1057C0000E94ED8B82E00E94CE8B7B018C01609366
:1057D0008E0570938F05809390059093910560914D
:1057E00086057091870580918805909189052091A3
:1057F0008A0530918B0540918C0550918D050E9452
:10580000116110918E0500918F05F0909005E09048
:105810009105E5EFF6E0949108C08091C00085FF06
:10582000FCCF9093C600319694919923B1F7E0EFA5
:10583000F6E0949108C08091C00085FFFCCF909362
:10584000C600319694919923B1F78CE698E04D818A
:105850005E816F81788522E030E00E94075CEBEE8C
:10586000F6E0949108C08091C00085FFFCCF909332
:10587000C600319694919923B1F78CE698E049855A
:105880005A856B857C8522E030E00E94075CE6EE5D
:10589000F6E0949108C08091C00085FFFCCF909302
:1058A000C600319694919923B1F78CE698E0212FA8
:1058B000302FEF2DFE2DA901BF0122E030E00E9424
:1058C000075CE4EEF6E0949108C08091C00085FF8B
:1058D000FCCF9093C600319694919923B1F7212F74
:1058E000302F4F2D5E2DB901CA0164960FB6F89482
:1058F000DEBF0FBECDBFCF91DF911F910F91FF9003
:10590000EF90DF90CF90BF90AF909F908F907F905F
:105910006F905F904F903F902F9008958091540624
:1059200090915506019660E070E04AE050E00E94D8
:10593000F20C08958091540690915506019660E00E
:1059400070E00E94920B0895CF93DF93EC01809159
:10595000B5058093190684E50E945F24882309F425
:1059600082C00E949A2C0E9434B0262F60931906A0
:10597000662309F478C0E4E9F3E0949108C08091CB
:10598000C00085FFFCCF9093C60031969491992377
:10599000B1F7CD36D105C1F0CE36D10544F4C836C5
:1059A000D105C1F0C936D10509F04DC010C0CA3DBE
:1059B000D10539F0CD3DD10509F045C0E3E1F2E074
:1059C0003FC0EAE2F2E031C0E1E4F2E023C0E8E502
:1059D000F2E015C0EFE6F2E007C08091C00085FF5D
:1059E000FCCF31969093C60090819923B1F72BC0DC
:1059F0008091C00085FFFCCF31969093C6009081C6
:105A00009923B1F720C08091C00085FFFCCF31966B
:105A10009093C60090819923B1F715C08091C00082
:105A200085FFFCCF31969093C60090819923B1F702
:105A30000AC08091C00085FFFCCF31969093C600CC
:105A400090819923B1F78CE698E0622F40E050E016
:105A50000E94E55A8091C00085FFFCCF8AE08093C8
:105A6000C60081E001C080E0DF91CF910895AF9240
:105A7000BF92CF92DF92EF92FF920F931F93CF933B
:105A8000DF93B6E8EB2EB5E0FB2ECBE3D6E000E0EB
:105A900010E0F801EE5CFA4F80810E945F248823B9
:105AA00039F10E949A2C5B016C01F801E058FA4F21
:105AB0008081882311F061E002C060914B0670E0A4
:105AC000882777FD8095982F0E9462B0F70120818A
:105AD0003181428153810E94A0B29B01AC01C60179
